{
  "contractName": "PaymentManager",
  "abi": [
    {
      "constant": true,
      "inputs": [
        {
          "name": "",
          "type": "uint256"
        }
      ],
      "name": "employeesIndex",
      "outputs": [
        {
          "name": "",
          "type": "address"
        }
      ],
      "payable": false,
      "stateMutability": "view",
      "type": "function"
    },
    {
      "constant": true,
      "inputs": [
        {
          "name": "",
          "type": "address"
        }
      ],
      "name": "payees",
      "outputs": [
        {
          "name": "",
          "type": "bool"
        }
      ],
      "payable": false,
      "stateMutability": "view",
      "type": "function"
    },
    {
      "constant": false,
      "inputs": [],
      "name": "renounceOwnership",
      "outputs": [],
      "payable": false,
      "stateMutability": "nonpayable",
      "type": "function"
    },
    {
      "constant": true,
      "inputs": [],
      "name": "owner",
      "outputs": [
        {
          "name": "",
          "type": "address"
        }
      ],
      "payable": false,
      "stateMutability": "view",
      "type": "function"
    },
    {
      "constant": false,
      "inputs": [
        {
          "name": "_newOwner",
          "type": "address"
        }
      ],
      "name": "transferOwnership",
      "outputs": [],
      "payable": false,
      "stateMutability": "nonpayable",
      "type": "function"
    },
    {
      "inputs": [
        {
          "name": "_employees",
          "type": "address[]"
        },
        {
          "name": "_amounts",
          "type": "uint256[]"
        }
      ],
      "payable": true,
      "stateMutability": "payable",
      "type": "constructor"
    },
    {
      "payable": true,
      "stateMutability": "payable",
      "type": "fallback"
    },
    {
      "anonymous": false,
      "inputs": [
        {
          "indexed": false,
          "name": "employee",
          "type": "address"
        },
        {
          "indexed": false,
          "name": "amount",
          "type": "uint256"
        }
      ],
      "name": "NewEmployee",
      "type": "event"
    },
    {
      "anonymous": false,
      "inputs": [
        {
          "indexed": false,
          "name": "employee",
          "type": "address"
        },
        {
          "indexed": false,
          "name": "newAmount",
          "type": "uint256"
        }
      ],
      "name": "UpdateSalary",
      "type": "event"
    },
    {
      "anonymous": false,
      "inputs": [
        {
          "indexed": false,
          "name": "employee",
          "type": "address"
        }
      ],
      "name": "DeleteEmployee",
      "type": "event"
    },
    {
      "anonymous": false,
      "inputs": [
        {
          "indexed": true,
          "name": "previousOwner",
          "type": "address"
        }
      ],
      "name": "OwnershipRenounced",
      "type": "event"
    },
    {
      "anonymous": false,
      "inputs": [
        {
          "indexed": true,
          "name": "previousOwner",
          "type": "address"
        },
        {
          "indexed": true,
          "name": "newOwner",
          "type": "address"
        }
      ],
      "name": "OwnershipTransferred",
      "type": "event"
    },
    {
      "constant": false,
      "inputs": [],
      "name": "claim",
      "outputs": [],
      "payable": false,
      "stateMutability": "nonpayable",
      "type": "function"
    },
    {
      "constant": false,
      "inputs": [
        {
          "name": "_address",
          "type": "address"
        },
        {
          "name": "_amount",
          "type": "uint256"
        }
      ],
      "name": "addEmployee",
      "outputs": [],
      "payable": false,
      "stateMutability": "nonpayable",
      "type": "function"
    },
    {
      "constant": false,
      "inputs": [
        {
          "name": "_address",
          "type": "address"
        }
      ],
      "name": "deleteEmployee",
      "outputs": [],
      "payable": false,
      "stateMutability": "nonpayable",
      "type": "function"
    },
    {
      "constant": false,
      "inputs": [
        {
          "name": "_address",
          "type": "address"
        },
        {
          "name": "_newAmount",
          "type": "uint256"
        }
      ],
      "name": "updateSalary",
      "outputs": [],
      "payable": false,
      "stateMutability": "nonpayable",
      "type": "function"
    },
    {
      "constant": true,
      "inputs": [
        {
          "name": "_address",
          "type": "address"
        }
      ],
      "name": "retrieveEmployee",
      "outputs": [
        {
          "name": "index",
          "type": "uint256"
        },
        {
          "name": "amount",
          "type": "uint256"
        },
        {
          "name": "nextPayDate",
          "type": "uint256"
        }
      ],
      "payable": false,
      "stateMutability": "view",
      "type": "function"
    }
  ],
  "bytecode": "0x6080604052604051620014d6380380620014d683398101806040528101908080518201929190602001805182019291905050506000336000806101000a81548173ffffffffffffffffffffffffffffffffffffffff021916908373ffffffffffffffffffffffffffffffffffffffff160217905550815183511415156200008557600080fd5b600083511115156200009657600080fd5b600090505b8251811015620000fe57620000f08382815181101515620000b857fe5b906020019060200201518383815181101515620000d157fe5b9060200190602002015162000107640100000000026401000000009004565b80806001019150506200009b565b5050506200040c565b6000806000809054906101000a900473ffffffffffffffffffffffffffffffffffffffff1673ffffffffffffffffffffffffffffffffffffffff163373ffffffffffffffffffffffffffffffffffffffff161415156200016657600080fd5b600073ffffffffffffffffffffffffffffffffffffffff168473ffffffffffffffffffffffffffffffffffffffff1614151515620001a357600080fd5b600083111515620001b357600080fd5b620001cc620003a3640100000000026401000000009004565b915060018490806001815401808255809150509060018203906000526020600020016000909192909190916101000a81548173ffffffffffffffffffffffffffffffffffffffff021916908373ffffffffffffffffffffffffffffffffffffffff160217905550506200025c60018080549050620003d56401000000000262000f3d179091906401000000009004565b905060606040519081016040528082815260200184815260200183815250600360008673ffffffffffffffffffffffffffffffffffffffff1673ffffffffffffffffffffffffffffffffffffffff1681526020019081526020016000206000820151816000015560208201518160010155604082015181600201559050506001600260008673ffffffffffffffffffffffffffffffffffffffff1673ffffffffffffffffffffffffffffffffffffffff16815260200190815260200160002060006101000a81548160ff0219169083151502179055507f7a07c11c01f54eb3d42d6ba01d491bded3a450bf94dc9476571e4c3961aa31718484604051808373ffffffffffffffffffffffffffffffffffffffff1673ffffffffffffffffffffffffffffffffffffffff1681526020018281526020019250505060405180910390a150505050565b600080620003cc62278d0042620003ef6401000000000262001050179091906401000000009004565b90508091505090565b6000828211151515620003e457fe5b818303905092915050565b600081830190508281101515156200040357fe5b80905092915050565b6110ba806200041c6000396000f3006080604052600436106100a4576000357c0100000000000000000000000000000000000000000000000000000000900463ffffffff1680631ade0ba0146100a657806322003f1014610113578063310441fa146101605780634e71d92d146101bb5780636e7c4ab1146101d2578063715018a6146102155780638da5cb5b1461022c578063b3e69ad814610283578063e7fd9a13146102e8578063f2fde38b14610335575b005b3480156100b257600080fd5b506100d160048036038101908080359060200190929190505050610378565b604051808273ffffffffffffffffffffffffffffffffffffffff1673ffffffffffffffffffffffffffffffffffffffff16815260200191505060405180910390f35b34801561011f57600080fd5b5061015e600480360381019080803573ffffffffffffffffffffffffffffffffffffffff169060200190929190803590602001909291905050506103b6565b005b34801561016c57600080fd5b506101a1600480360381019080803573ffffffffffffffffffffffffffffffffffffffff169060200190929190505050610584565b604051808215151515815260200191505060405180910390f35b3480156101c757600080fd5b506101d06105a4565b005b3480156101de57600080fd5b50610213600480360381019080803573ffffffffffffffffffffffffffffffffffffffff1690602001909291905050506106e6565b005b34801561022157600080fd5b5061022a610991565b005b34801561023857600080fd5b50610241610a93565b604051808273ffffffffffffffffffffffffffffffffffffffff1673ffffffffffffffffffffffffffffffffffffffff16815260200191505060405180910390f35b34801561028f57600080fd5b506102c4600480360381019080803573ffffffffffffffffffffffffffffffffffffffff169060200190929190505050610ab8565b60405180848152602001838152602001828152602001935050505060405180910390f35b3480156102f457600080fd5b50610333600480360381019080803573ffffffffffffffffffffffffffffffffffffffff16906020019092919080359060200190929190505050610c3c565b005b34801561034157600080fd5b50610376600480360381019080803573ffffffffffffffffffffffffffffffffffffffff169060200190929190505050610eb4565b005b60018181548110151561038757fe5b906000526020600020016000915054906101000a900473ffffffffffffffffffffffffffffffffffffffff1681565b60008060009054906101000a900473ffffffffffffffffffffffffffffffffffffffff1673ffffffffffffffffffffffffffffffffffffffff163373ffffffffffffffffffffffffffffffffffffffff1614151561041357600080fd5b600073ffffffffffffffffffffffffffffffffffffffff168373ffffffffffffffffffffffffffffffffffffffff161415151561044f57600080fd5b60008211151561045e57600080fd5b600260008473ffffffffffffffffffffffffffffffffffffffff1673ffffffffffffffffffffffffffffffffffffffff16815260200190815260200160002060009054906101000a900460ff1615156104b657600080fd5b600360008473ffffffffffffffffffffffffffffffffffffffff1673ffffffffffffffffffffffffffffffffffffffff1681526020019081526020016000209050600081600101541415151561050b57600080fd5b8181600101819055507f203a64691852b205e63a019dafacf9c204b5d335c31c25e76809c289d50ccbb38383604051808373ffffffffffffffffffffffffffffffffffffffff1673ffffffffffffffffffffffffffffffffffffffff1681526020018281526020019250505060405180910390a1505050565b60026020528060005260406000206000915054906101000a900460ff1681565b600080600260003373ffffffffffffffffffffffffffffffffffffffff1673ffffffffffffffffffffffffffffffffffffffff16815260200190815260200160002060009054906101000a900460ff1615156105ff57600080fd5b600360003373ffffffffffffffffffffffffffffffffffffffff1673ffffffffffffffffffffffffffffffffffffffff168152602001908152602001600020915081600201544211151561065257600080fd5b8160010154905060008111151561066857600080fd5b803073ffffffffffffffffffffffffffffffffffffffff16311015151561068b57fe5b3373ffffffffffffffffffffffffffffffffffffffff166108fc829081150290604051600060405180830381858888f193505050501580156106d1573d6000803e3d6000fd5b506106da610f1b565b82600201819055505050565b60008060008060009054906101000a900473ffffffffffffffffffffffffffffffffffffffff1673ffffffffffffffffffffffffffffffffffffffff163373ffffffffffffffffffffffffffffffffffffffff1614151561074657600080fd5b600073ffffffffffffffffffffffffffffffffffffffff168473ffffffffffffffffffffffffffffffffffffffff161415151561078257600080fd5b600060018054905011151561079657600080fd5b6000600260008673ffffffffffffffffffffffffffffffffffffffff1673ffffffffffffffffffffffffffffffffffffffff16815260200190815260200160002060006101000a81548160ff021916908315150217905550600360008573ffffffffffffffffffffffffffffffffffffffff1673ffffffffffffffffffffffffffffffffffffffff16815260200190815260200160002060000154925061084b60018080549050610f3d90919063ffffffff16565b915060018281548110151561085c57fe5b9060005260206000200160009054906101000a900473ffffffffffffffffffffffffffffffffffffffff1690508060018481548110151561089957fe5b9060005260206000200160006101000a81548173ffffffffffffffffffffffffffffffffffffffff021916908373ffffffffffffffffffffffffffffffffffffffff16021790555082600360008373ffffffffffffffffffffffffffffffffffffffff1673ffffffffffffffffffffffffffffffffffffffff168152602001908152602001600020600001819055507fab010830f28c7902efc221a020c7aa876ac659076419636e8be769bb1551352f84604051808273ffffffffffffffffffffffffffffffffffffffff1673ffffffffffffffffffffffffffffffffffffffff16815260200191505060405180910390a150505050565b6000809054906101000a900473ffffffffffffffffffffffffffffffffffffffff1673ffffffffffffffffffffffffffffffffffffffff163373ffffffffffffffffffffffffffffffffffffffff161415156109ec57600080fd5b6000809054906101000a900473ffffffffffffffffffffffffffffffffffffffff1673ffffffffffffffffffffffffffffffffffffffff167ff8df31144d9c2f0f6b59d69b8b98abd5459d07f2742c4df920b25aae33c6482060405160405180910390a260008060006101000a81548173ffffffffffffffffffffffffffffffffffffffff021916908373ffffffffffffffffffffffffffffffffffffffff160217905550565b6000809054906101000a900473ffffffffffffffffffffffffffffffffffffffff1681565b6000806000610ac561106c565b6000809054906101000a900473ffffffffffffffffffffffffffffffffffffffff1673ffffffffffffffffffffffffffffffffffffffff163373ffffffffffffffffffffffffffffffffffffffff16141515610b2057600080fd5b600073ffffffffffffffffffffffffffffffffffffffff168573ffffffffffffffffffffffffffffffffffffffff1614151515610b5c57600080fd5b600260008673ffffffffffffffffffffffffffffffffffffffff1673ffffffffffffffffffffffffffffffffffffffff16815260200190815260200160002060009054906101000a900460ff161515610bb457600080fd5b600360008673ffffffffffffffffffffffffffffffffffffffff1673ffffffffffffffffffffffffffffffffffffffff1681526020019081526020016000206060604051908101604052908160008201548152602001600182015481526020016002820154815250509050806000015181602001518260400151935093509350509193909250565b6000806000809054906101000a900473ffffffffffffffffffffffffffffffffffffffff1673ffffffffffffffffffffffffffffffffffffffff163373ffffffffffffffffffffffffffffffffffffffff16141515610c9a57600080fd5b600073ffffffffffffffffffffffffffffffffffffffff168473ffffffffffffffffffffffffffffffffffffffff1614151515610cd657600080fd5b600083111515610ce557600080fd5b610ced610f1b565b915060018490806001815401808255809150509060018203906000526020600020016000909192909190916101000a81548173ffffffffffffffffffffffffffffffffffffffff021916908373ffffffffffffffffffffffffffffffffffffffff16021790555050610d6d60018080549050610f3d90919063ffffffff16565b905060606040519081016040528082815260200184815260200183815250600360008673ffffffffffffffffffffffffffffffffffffffff1673ffffffffffffffffffffffffffffffffffffffff1681526020019081526020016000206000820151816000015560208201518160010155604082015181600201559050506001600260008673ffffffffffffffffffffffffffffffffffffffff1673ffffffffffffffffffffffffffffffffffffffff16815260200190815260200160002060006101000a81548160ff0219169083151502179055507f7a07c11c01f54eb3d42d6ba01d491bded3a450bf94dc9476571e4c3961aa31718484604051808373ffffffffffffffffffffffffffffffffffffffff1673ffffffffffffffffffffffffffffffffffffffff1681526020018281526020019250505060405180910390a150505050565b6000809054906101000a900473ffffffffffffffffffffffffffffffffffffffff1673ffffffffffffffffffffffffffffffffffffffff163373ffffffffffffffffffffffffffffffffffffffff16141515610f0f57600080fd5b610f1881610f56565b50565b600080610f3462278d004261105090919063ffffffff16565b90508091505090565b6000828211151515610f4b57fe5b818303905092915050565b600073ffffffffffffffffffffffffffffffffffffffff168173ffffffffffffffffffffffffffffffffffffffff1614151515610f9257600080fd5b8073ffffffffffffffffffffffffffffffffffffffff166000809054906101000a900473ffffffffffffffffffffffffffffffffffffffff1673ffffffffffffffffffffffffffffffffffffffff167f8be0079c531659141344cd1fd0a4f28419497f9722a3daafe3b4186f6b6457e060405160405180910390a3806000806101000a81548173ffffffffffffffffffffffffffffffffffffffff021916908373ffffffffffffffffffffffffffffffffffffffff16021790555050565b6000818301905082811015151561106357fe5b80905092915050565b60606040519081016040528060008152602001600081526020016000815250905600a165627a7a72305820785f2b828abadf40b7fbc79693c7e2941e90b03db747069d43e05fc4b253dfdb0029",
  "source": "pragma solidity ^0.4.24;\n\nimport 'openzeppelin-solidity/contracts/math/SafeMath.sol';\nimport 'openzeppelin-solidity/contracts/ownership/Ownable.sol';\n\ncontract PaymentManager is Ownable {\n\n    using SafeMath for uint256;\n\n    struct Employee {\n        uint256 index;\n        uint256 amount;\n        uint256 nextPayDate;\n    }\n\n    address[] public employeesIndex;\n    mapping (address => bool) public payees;\n    mapping (address => Employee) private employees;\n\n    event NewEmployee(address employee, uint256 amount);\n    event UpdateSalary(address employee, uint256 newAmount);\n    event DeleteEmployee(address employee);\n\n\n    /**\n    * @dev payable fallback\n    */\n    function () external payable {}\n\n    // [\"0x583031d1113ad414f02576bd6afabfb302140225\",\"0x4b0897b0513fdc7c541b6d9d7e929c4e5364d2db\",\"0x14723a09acff6d2a60dcdf7aa4aff308fddc160c\"], [\"3000000000000000000\",\"4000000000000000000\",\"2000000000000000000\"]\n\n    /**\n    * @dev Constructor\n    */\n    constructor(address[] _employees, uint256[] _amounts) public payable {\n\n        require(_employees.length == _amounts.length);\n        require(_employees.length > 0);\n\n        for (uint256 i = 0; i < _employees.length; i++) {\n            addEmployee(_employees[i], _amounts[i]);\n        }\n\n    }\n\n    /**\n    * @dev Claim your pay of the balance.\n    */\n    function claim() public {\n\n        require(payees[msg.sender]);\n\n        Employee storage employee = employees[msg.sender];\n        require(now > employee.nextPayDate);\n\n        uint256 payment = employee.amount;\n        require(payment > 0);\n\n        assert(address(this).balance >= payment);\n        msg.sender.transfer(payment);\n        employee.nextPayDate = getNextPayDate();\n\n    }\n\n    /**\n    * @dev Add a new employee to the contract.\n    * @param _address The address of the employee to add.\n    * @param _amount The number of salary owned by the employee.\n    */\n    //\"0xdd870fa1b7c4700f2bd7f44238821c26f7392148\",\"1000000000000000000\"\n    function addEmployee(address _address, uint256 _amount) public onlyOwner {\n\n        require(_address != address(0));\n        require(_amount > 0);\n\n        uint256 nextPayDate = getNextPayDate();\n        employeesIndex.push(_address);\n        uint256 index = employeesIndex.length.sub(1);\n        employees[_address] = Employee(index, _amount, nextPayDate);\n        payees[_address] = true;\n\n        emit NewEmployee(_address, _amount);\n\n    }\n\n    /**\n    * @dev Remove a new employee to the contract.\n    * @param _address The address of the employee to add.\n    */\n    function deleteEmployee(address _address) public onlyOwner {\n\n        require(_address != address(0));\n        require(employeesIndex.length > 0);\n\n        payees[_address] = false;\n\n        uint rowToDelete = employees[_address].index;\n\n        uint index = employeesIndex.length.sub(1);\n        address keyToMove = employeesIndex[index];\n\n        employeesIndex[rowToDelete] = keyToMove;\n        employees[keyToMove].index = rowToDelete;\n\n        emit DeleteEmployee(_address);\n\n    }\n\n    /**\n    * @dev update a salary to the contract.\n    * @param _address The address of the employee to update.\n    * @param _newAmount The new number of salary owned by the employee.\n    */\n    //\"0xdd870fa1b7c4700f2bd7f44238821c26f7392148\",\"2000000000000000000\"\n    function updateSalary(address _address, uint256 _newAmount) public onlyOwner {\n\n        require(_address != address(0));\n        require(_newAmount > 0);\n        require(payees[_address]);\n\n        Employee storage employee = employees[_address];\n        require(employee.amount != 0);\n\n        employee.amount = _newAmount;\n\n        emit UpdateSalary(_address, _newAmount);\n\n    }\n\n    /**\n    * @dev retrieve employee.\n    * @param _address The address of the employee to add.\n    */\n    function retrieveEmployee(address _address) public view onlyOwner returns (uint256 index, uint256 amount, uint256 nextPayDate) {\n\n        require(_address != address(0));\n        require(payees[_address]);\n\n        Employee memory employee = employees[_address];\n\n        return (employee.index, employee.amount, employee.nextPayDate);\n\n    }\n\n    /**\n    * @dev Calculate the next payment.\n    */\n    function getNextPayDate() private view returns (uint256 time) {\n        uint256 nextPayDate = now.add(30 days);\n        return nextPayDate;\n    }\n\n}",
  "sourcePath": "/Users/joaquin.gonzalez/Code/dapp-payment-manager/version1/contracts/PaymentManager.sol",
  "compiler": {
    "name": "solc",
    "version": "0.4.24+commit.e67f0147.Emscripten.clang"
  },
  "schemaVersion": "2.0.1",
  "updatedAt": "2018-08-19T17:09:03.489Z"
}